:1000000008C1000037C1000035C1000033C1000045
:1000100031C100002FC100002DC100002BC1000024
:1000200029C1000027C1000025C1000023C1000034
:1000300021C100001FC100001DC100001BC1000044
:1000400019C1000017C1000015C1000013C1000054
:1000500011C100000FC100000DC100000C94551526
:1000600009C1000007C1000005C1000003C1000074
:1000700001C10000FFC00000FDC00000FBC0000087
:10008000F9C00000F7C00000F5C00000F3C0000098
:10009000F1C00000EFC00000EDC00000EBC00000A8
:1000A000E9C00000E7C00000E5C00000E3C00000B8
:1000B000E1C00000DFC00000DDC00000DBC00000C8
:1000C000D9C00000D7C00000D5C00000D3C00000D8
:1000D000D1C00000CFC00000CDC00000CBC00000E8
:1000E000C9C000007417CC17C617C017BA17591724
:1000F000B417AE17A817A2179C17961790178A1750
:10010000591784177E17781700000A0B02090C0D87
:100110000E080703040100000000000000000000BA
:1001200000000000000000000000000000000000CF
:10013000000000001211100000000000000000008C
:1001400000000000000000000000000000000000AF
:100150002200250028002B002E003100340002016F
:100160000000050108010B01000021002400270008
:100170002A002D00300033000101000004010701B6
:100180000A0105050505070508080808020202021C
:100190000A0A080804040404010101010101010123
:1001A0000303030303030303040707070C0C0C0CEE
:1001B0000C0C0C0C020202020606060606060606D7
:1001C0000B0B0B0B0B0B0B0B010210202008081064
:1001D00020401020408002010201080402010102B7
:1001E0000408102040808040201008040201800490
:1001F00002018040201008040201080402010102EB
:1002000004081020408001020408102040801D23B3
:10021000142311241FBECFEFD1E2DEBFCDBF00E01B
:100220000CBF23E0ACEEB2E001C01D92A938B207CA
:10023000E1F712E0A0E0B2E0E0EBFAE400E00BBF8F
:1002400002C007900D92AC3EB107D9F711E0C8E0AB
:10025000D1E000E006C021970109802FFE010E9435
:10026000AE23C730D10780E00807A9F70E943B1EE4
:100270000C944725C5CE2C9820EF2EBD00000DB460
:1002800007FEFDCF2EB59EBD00000DB407FEFDCFCD
:100290009EB58EBD00000DB407FEFDCF8EB56EBDC0
:1002A00000000DB407FEFDCF8EB52C9A81E00895B5
:1002B000FF920F931F93CF93DF931F921F92CDB79F
:1002C000DEB7F82E8A012A8369830E941E1080E51A
:1002D0008CBD1DBC2C9880EF8EBD000069812A81E9
:1002E0000DB407FEFDCF8F2D90E00496982F882740
:1002F0003EB59EBD00000DB407FEFDCF3EB51EBC51
:1003000000000DB407FEFDCF3EB5262B2EBD00002C
:100310000DB407FEFDCF2EB52C9A0115110509F479
:1003200084C09C012C5F3F4F2C9840EF4EBD0000D5
:100330000DB407FEFDCF2EB53EBD00000DB407FE87
:10034000FDCF2EB524E02EBD00000DB407FEFDCF7D
:100350002EB51EBD00000DB407FEFDCF2EB52C9AA4
:100360009C012B5F3F4F2C9840EF4EBD00000DB419
:1003700007FEFDCF2EB53EBD00000DB407FEFDCF3C
:100380002EB525E02EBD00000DB407FEFDCF2EB525
:100390000EBD00000DB407FEFDCF2EB52C9A0196C0
:1003A0002C9820EF2EBD00000DB407FEFDCF8EB5BA
:1003B000392F9EBD00000DB407FEFDCF8EB581E044
:1003C0008EBD00000DB407FEFDCF8EB581E08EBD61
:1003D00000000DB407FEFDCF8EB52C9A2FE091E002
:1003E0002C982EBD00000DB407FEFDCF8EB53EBD8E
:1003F00000000DB407FEFDCF8EB59EBD00000DB40C
:1004000007FEFDCF8EB51EBC00000DB407FEFDCF6C
:100410008EB52C9A8111E4CF81E00F900F90DF917F
:10042000CF911F910F91FF9008952091F802309184
:10043000F9022F5F3F4F3093F9022093F802AC018D
:100440004C5F5F4F2C9860EF6EBD00000DB407FE4F
:10045000FDCF4EB55EBD00000DB407FEFDCF4EB51D
:1004600044E04EBD00000DB407FEFDCF4EB53EBDCD
:1004700000000DB407FEFDCF4EB52C9AAC014B5FCA
:100480005F4F2C9860EF6EBD00000DB407FEFDCFEE
:100490004EB55EBD00000DB407FEFDCF4EB545E084
:1004A0004EBD00000DB407FEFDCF3EB52EBD0000D1
:1004B0000DB407FEFDCF71CF2F923F924F925F9206
:1004C0006F927F928F929F92AF92BF92CF92DF9264
:1004D000EF92FF920F931F93CF93DF93CDB7DEB7C9
:1004E00068970FB6F894DEBF0FBECDBF6C015B01FD
:1004F0008A01FB0130E080E090E02191222309F4A1
:1005000067C040ED420F4A3008F051C0AC01440FC3
:10051000551F880F991F880F991F880F991F840FE7
:10052000951FC097820F911D27FD9A958F3F9105CA
:1005300021F318F3F6014281538164817581809122
:10054000130390911403A0911503B091160348175B
:1005500059076A077B0709F49FC08FB7F89440904A
:10056000FD025090FE026090FF02709000038FBF6A
:10057000F60180A18430A9F180E090E068960FB682
:10058000F894DEBF0FBECDBFDF91CF911F910F91C9
:10059000FF90EF90DF90CF90BF90AF909F908F90A3
:1005A0007F906F905F904F903F902F9008952E32E4
:1005B00009F0C0CF333009F4BDCFD801A30FB11D6E
:1005C00012968C933F5F80E090E02191211199CFAA
:1005D000333009F0AFCFD80115968C9381E090E0CD
:1005E000CDCFF12C8F2D0E94CA11882309F44FC062
:1005F000883109F44CC0F394B4E0FB12F3CFF60158
:1006000080A1843009F4B8CFFFE04F225524A20125
:100610005C5F460128E0820E911CD60155965C93E2
:100620004E93549792961C921E92919720E062E00E
:100630003FDE8AEC92E09A838983F601828193817E
:10064000A481B5818B839C83AD83BE8345E350E059
:10065000BE016F5F7F4FC40100D7892B11F500E009
:1006600010E0F60180A18430D1F00E941E10D60166
:100670009096EC919097F0E0EE0FFF1FE451FD4F44
:100680001182108284E090968C93C80177CF8F2DD1
:10069000D6019096FC92B8CF8EEF9FEF6FCFC80136
:1006A0006DCF2FB7F8948091FD029091FE02A0913A
:1006B000FF02B09100032FBFF6019783868398272E
:1006C000892798279A838983668D778D22E030E089
:1006D000AE014F5F5F4F80A10E94010ED6015E9672
:1006E0006D917C915F97680F791F5F967C936E93F5
:1006F0005E9781E090E09E878D8722E030E0AE013A
:10070000435F5F4F90968C910E94010EF601668DBB
:10071000778D680F791F778F668F80E091E09E87D5
:100720008D8722E030E0AE01435F5F4F80A10E94E1
:10073000010ED6015E966D917C915F97680F791FCF
:100740005F967C936E935E971E861D8622E030E056
:10075000AE01435F5F4F90968C910E94010EF601AF
:10076000668D778D680F791F778F668F22E030E076
:10077000AE01435F5F4F80A10E94010ED6015E96DD
:100780006D917C915F97680F791F5F967C936E9354
:100790005E9722E030E0AE01435F5F4F90968C9110
:1007A0000E94010EF601668D778D680F791F778F95
:1007B000668FD5019C91992309F448C09E01215F61
:1007C0003F4F1901992309F41EC19E3209F41BC140
:1007D00095012F5F3F4F02C09E3239F07901D90158
:1007E0009C912F5F3F4F9111F7CF37016A187B081B
:1007F0001614170414F56F8621E030E0A101F6010C
:1008000080A10E94010ED6015E966D917C915F974A
:10081000680F791F5F967C936E935E979301A50195
:1008200090968C910E94010EF601668D778D680F6F
:10083000791F778F668FD7019C915701BFEFAB1A55
:10084000BB0A992331F0F7019181BCCFFE013F969D
:100850001F011F8621E030E0A101D60190968C9106
:100860000E94010EF601668D778D680F791F778FD4
:10087000668FE12CFF24F394FE86ED8622E030E0C3
:10088000AE01435F5F4F80A10E94010ED6015E96CC
:100890006D917C915F97680F791F5F967C936E9343
:1008A0005E97FE86ED8622E030E0AE01435F5F4F4B
:1008B00090968C910E94010EF601268D378D820F45
:1008C000931F978F868FC401FFD4892B09F4C7CE5D
:1008D000EE24E394F12C8FB7F8942091FD0230912F
:1008E000FE024091FF02509100032D8B3E8B4F8BF7
:1008F000588F8FBFC40117D4181619060CF48DC079
:100900002FB7F8948091FD029091FE02A091FF0212
:10091000B09100032FBF2D893E894F89588D821BCE
:10092000930BA40BB50B89389341A105B10508F0D1
:100930006CC09FB7F8944091F4025091F502609119
:10094000F6027091F70286B5A89B06C08F3F21F092
:100950004F5F5F4F6F4F7F4F9FBF762F652F542F95
:100960004427480F511D611D711D440F551F661FFF
:10097000771F440F551F661F771FF2E34F2E512C30
:10098000612C712C3FB7F8948091F4029091F5029C
:10099000A091F602B091F70226B5A89B05C02F3FA3
:1009A00019F00196A11DB11D3FBFBA2FA92F982F95
:1009B0008827820F911DA11DB11D880F991FAA1FA5
:1009C000BB1F880F991FAA1FBB1F841B950BA60B6B
:1009D000B70B883E9340A105B10570F081E0481A3D
:1009E00051086108710848515C4F6F4F7F4F4114A7
:1009F00051046104710431F641145104610471041D
:100A000009F0C0CF77CF750118CFB3E0EB16F10432
:100A100039F1FFEFEF1AFF0A5ECFD60112964D9122
:100A20005D916D917C91159758968D919D910D904A
:100A3000BC91A02D481759076A077B0721F08EEF5C
:100A40009FEF8C010ECEF601848D958DC597B9F779
:100A500081A192A10C973CF48DEF9FEF8C0101CE08
:100A60000FEF1FEFFECD4CE050E0BE016F5F7F4FF8
:100A7000C40105D38B8190E0982F88272C81822B8D
:100A80009A8B898B298130E0322F22274A81242BAF
:100A9000D60116964D915C9117974217530721F096
:100AA0008CEF9FEF8C01DDCD97FFFACF8F709270A6
:100AB000892B21F08BEF9FEF8C01D3CD6F80712CB0
:100AC000762C66248885682A6114710409F448C16B
:100AD0008D8190E0982F88272E81822B892B09F415
:100AE00047C1F60181A192A1E12CF12C0097C1F040
:100AF00041E050E0B101D60190968C910E94FB1B21
:100B00009C01181619060CF02FC1D60191968D91F3
:100B10009C919297821B930B92969C938E939197A4
:100B20002F85222301F121502F87009739F4322F8E
:100B30002FEF230F2F873111F8CFD8CF41E050E0AE
:100B4000BE01635F7F4FF60180A10E94FB1B181658
:100B500019060CF013C1F60181A192A1019792A38D
:100B600081A33F85E5CF009709F0D2C0009709F037
:100B7000BCC0009709F009C1009709F0A3C0BFEFFE
:100B8000EB1AFB0A2D8130E0322F22274E81242BD5
:100B9000E216F30608F4AACFE12CF12C892BA9F078
:100BA00041E050E0BE016C5E7F4FD60190968C9183
:100BB0000E94FB1B9C01181619063CF4F60181A14A
:100BC00092A1821B930B92A381A32C89822F807CFC
:100BD00059F5222361F121502C8BD60191968D91EC
:100BE0009C919297009739F4322F2FEF230F2C8B83
:100BF0003111F8CFD3CF41E050E0BE01635F7F4FAA
:100C0000F60180A10E94FB1B181619060CF053C0B8
:100C1000D60191968D919C919297019792969C9373
:100C20008E9391973C89E1CFC4014FD21C8A42E058
:100C300050E0B101C40123D242E050E0BE01635F45
:100C40007F4FC4011CD284E0A82EB12CC4013DD238
:100C5000B1E0AB1AB108D1F742E050E0BE016F5EDF
:100C60007F4FC4010CD28F8598898115914009F47A
:100C7000C6C089899A89982789279827009781F083
:100C8000A12CB12CD60191962D913C919297232BBA
:100C900009F092C0BFEFAB1ABB0AA816B90690F3D1
:100CA000FFEFEF1AFF0AE614F70409F4B7C0F601E4
:100CB00081A192A173CF2C89D60191968D919C919F
:100CC000929792CF41E050E0BE01635F7F4FF60103
:100CD00080A10E94FB1B181619068CF5F60181A154
:100CE00092A1019792A381A34ACF41E050E0BE01B7
:100CF000635F7F4FF60180A10E94FB1B1816190647
:100D000024F5F60181A192A1019792A381A331CF8D
:100D100041E050E0BE01635F7F4FF60180A10E9479
:100D2000FB1BD60118161906B4F491968D919C916F
:100D30009297019792969C938E93919717CFD60195
:100D400091968D919C9192971ACFD60191968D9103
:100D50009C9192970ECF91968D919C91929706CFF0
:100D60008AEF9FEF8C017DCCF60181A192A1D8CEB4
:100D7000D60191968D919C9192970ECFD601919626
:100D80008D919C9192972F85D2CE41E050E0BE018B
:100D9000635F7F4FF60180A10E94FB1BD6011816EE
:100DA000190614F591968D919C91929701979296C0
:100DB0009C938E939197E0CE41E050E0BE016D5E32
:100DC0007F4F90968C910E94FB1B181619068CF48D
:100DD000F60181A192A1019792A381A389899A89A1
:100DE00098278927982756CF91968D919C91929715
:100DF000C3CE89899A899827892798274BCF8D85D3
:100E00009E858115914009F034CF89899A89811591
:100E1000944041F087EF9FEF8C0123CC86EF9FEF4A
:100E20008C011FCCB8016E5F7F4F44E050E0C401DD
:100E300026D181E090E08C0114CC08951F93CF93CC
:100E4000DF9300D000D0CDB7DEB7DC0158962C91EF
:100E5000243059F080E026960FB6F894DEBF0FBE1E
:100E6000CDBFDF91CF911F91089523E034E0E0E002
:100E7000F0E01FE0B3E02C981EBD00000DB407FEAB
:100E8000FDCFAEB53EBD00000DB407FEFDCFAEB543
:100E9000BEBD00000DB407FEFDCFAEB51EBC000008
:100EA0000DB407FEFDCFAEB52C9AAA2309F4CAC033
:100EB000A83109F4C7C031963395E430F105D9F66D
:100EC000FC01208D243031F236E0E9E1F2E0DE0170
:100ED000119601900D923A95E1F7DB0113963C9142
:100EE00013973F773C8314963C9114973D83159656
:100EF0003C913E83A22FB0E01496BA2FAA279D0101
:100F0000245F3F4FFB013296BD01605F7F4FB0EF22
:100F10002C98BEBD00000DB407FEFDCFAEB53EBDA2
:100F200000000DB407FEFDCFAEB52EBD00000DB420
:100F300007FEFDCFAEB52F5F3F4FA191AEBD0000C4
:100F40000DB407FEFDCFAEB52C9A2617370701F773
:100F5000FC01208D30E02C5F3F4F322F2227B9015A
:100F6000605F7F4F2C98E0EFEEBD00000DB407FEF0
:100F7000FDCF6EB57EBD00000DB407FEFDCF6EB592
:100F800060E16EBD00000DB407FEFDCF6EB55EBD25
:100F900000000DB407FEFDCF6EB52C9A2F5E3F4FBB
:100FA0002C9860EF6EBD00000DB407FEFDCF2EB58E
:100FB0003EBD00000DB407FEFDCF2EB521E12EBDD4
:100FC00000000DB407FEFDCF2EB54EBD00000DB4E0
:100FD00007FEFDCF2EB52C9AFC01A08DB0E0149633
:100FE000BA2FAA279D012A5F3F4FFE0131961C961A
:100FF00070EF2C987EBD00000DB407FEFDCF6EB5DE
:101000003EBD00000DB407FEFDCF6EB52EBD000045
:101010000DB407FEFDCF6EB52F5F3F4F61916EBDE2
:1010200000000DB407FEFDCF6EB52C9A2A173B07C2
:1010300001F7FC01128E118E20E862E0808D38D914
:1010400081E009CF2E2FDC015896EC933DCFCF9352
:10105000DF931F92CDB7DEB7FC01218D328D232B9C
:1010600059F0BE016F5F7F4F808DE8D6898190E097
:101070000F90DF91CF9108958FEF9FEFF9CFCF932E
:10108000DF93FC01218D328D21153105D9F0EC0162
:101090004217530788F4808D0E94FB1B9C01121697
:1010A000130684F4898D9A8D821B930B9A8F898FF6
:1010B000C901DF91CF910895A901808D0E94FB1B8A
:1010C0009C01EDCF8FEF9FEFF4CF0F931F93CF9342
:1010D000DF931F92CDB7DEB7FC01218D328D232B1C
:1010E00041F48FEF9FEF0F90DF91CF911F910F9100
:1010F00008958C0141E050E0BE016F5F7F4F808D0D
:101100000E94FB1B1816190664F7F801818D928D59
:101110000197928F818F898190E00F90DF91CF911D
:101120001F910F9108950F931F93CF93DF93CDB726
:10113000DEB728970FB6F894DEBF0FBECDBF8C0187
:10114000DC0159968D919C915A97D801892B21F1F8
:10115000ED91FC910284F385E02DB8E0E536FB07C4
:1011600009F055C041E050E0BE016F5F7F4FF801CC
:10117000808D0E94FB1BD801181619060CF04DC07B
:1011800059968D919C915A9701975A969C938E935C
:101190005997D801892BE1F658968C91C4D6181628
:1011A00019060CF03FC048E050E0BE016F5F7F4F72
:1011B000F801808D0E94FB1B9C0118161906DCF4B7
:1011C00089819A81AB81BC81F801808B918BA28B44
:1011D000B38B8D8190E0982F88272E81820F911DEF
:1011E000958B848B2F8130E0322F22278885280F22
:1011F000311D328F218FC90128960FB6F894DEBFBA
:101200000FBECDBFDF91CF911F910F910895C801FF
:101210001995F801818D928D98CF59968D919C9159
:101220005A9793CF80E090E0E7CFCF93DF93EC0124
:101230009A018E899F89AB01BC01888DE2D42E89E9
:101240003F89280F391F3F8B2E8BDF91CF91089557
:101250000F931F93CF93DF931F92CDB7DEB78C010F
:101260006983DC01ED91FC910280F381E02DB9E00E
:10127000E531FB07E9F4FC016689778921E030E07C
:10128000AE014F5F5F4F808DBCD49C01D801569654
:101290008D919C915797820F931F57969C938E9395
:1012A0005697C9010F90DF91CF911F910F9108952B
:1012B00041E050E0BE016F5F7F4F19950F90DF91C5
:1012C000CF911F910F910895FC01408D80E58CBD59
:1012D0001DBC2C9880EF8EBD00000DB407FEFDCF25
:1012E00050E04C5F5F4F542F44278EB5CA010196E2
:1012F000392F9EBD00000DB407FEFDCF8EB581E0F5
:101300008EBD00000DB407FEFDCF8EB580E28EBD10
:1013100000000DB407FEFDCF8EB52C9A2FE091E0B2
:101320002C982EBD00000DB407FEFDCF8EB53EBD3E
:1013300000000DB407FEFDCF8EB59EBD00000DB4BC
:1013400007FEFDCF8EB51EBC00000DB407FEFDCF1D
:101350008EB52C9A8111E4CFBA016E5F7F4F272F93
:101360009FE082E050E52C989EBD00000DB407FE82
:10137000FDCF3EB52EBD00000DB407FEFDCF3EB53E
:101380008EBD00000DB407FEFDCF3EB51EBC0000B3
:101390000DB407FEFDCF3EB52C9A2C9834FD1EC02F
:1013A0009EBD00000DB407FEFDCF3EB52EBD000072
:1013B0000DB407FEFDCF3EB58EBD00000DB407FE97
:1013C000FDCF3EB51EBC00000DB407FEFDCF3EB5FF
:1013D0002C9A33FD22C05CBD1DBCC5CF80EF8EBDF5
:1013E00000000DB407FEFDCF8EB57EBD00000DB42C
:1013F00007FEFDCF8EB582E08EBD00000DB407FE66
:10140000FDCF8EB580E18EBD00000DB407FEFDCF8F
:101410008EB52C9A81E090E008952C9880EF8EBDD7
:1014200000000DB407FEFDCF8EB57EBD00000DB4EB
:1014300007FEFDCF8EB582E08EBD00000DB407FE25
:10144000FDCF8EB588E18EBD00000DB407FEFDCF47
:101450008EB52C9A80E090E00895FB01DC01579650
:101460001C921E92569758966C918281811103C0EE
:101470008381882331F04115510551F480E090E0DB
:10148000089584818111F7CF85818111F4CFF6CF42
:1014900080E58CBD1DBC70E06C5F7F4F762F6627AA
:1014A000CB010C963296DB01509630EF2C983EBD66
:1014B00000000DB407FEFDCF2EB59EBD00000DB49B
:1014C00007FEFDCF2EB58EBD00000DB407FEFDCF8B
:1014D0002EB5019621912EBD00000DB407FEFDCF63
:1014E0002EB52C9A8A179B0709F72C9880EF8EBD92
:1014F00000000DB407FEFDCF8EB5BEBD00000DB4DB
:1015000007FEFDCF8EB580E18EBD00000DB407FE55
:10151000FDCF8EB55EBD00000DB407FEFDCF8EB5CC
:101520002C9A6F5E7F4F2C9880EF8EBD00000DB41B
:1015300007FEFDCF8EB57EBD00000DB407FEFDCFCA
:101540008EB581E18EBD00000DB407FEFDCF8EB5D6
:101550004EBD00000DB407FEFDCF8EB52C9A81E084
:1015600090E00895FC01818D928D0895FC0184899D
:10157000958908952AEC32E0FC0131832083FB0138
:101580004089518962897389FC0142835383648352
:101590007583089580E00895FC019485FB0184859E
:1015A000981711F080E0089581E09430D9F3089500
:1015B00021E0FC018485843011F0822F089520E021
:1015C000822F0895CF92DF92EF92FF920F931F9395
:1015D000CF93DF93CDB7DEB7AF970FB6F894DEBFEA
:1015E0000FBECDBF7C016A010AEC12E01A830983A9
:1015F0001C861B8688EE93E0A0E0B0E08D879E8776
:10160000AF87B88B83E292E09A878987188F0F8B18
:10161000198E1A8E1B8E1C8E84E089A31DA30CA329
:101620001EA21FA218A619A68091190390911A0351
:10163000A0911B03B0911C038CA79DA7AEA7BFA7C9
:101640008B839C83AD83BE8318861F82AE014C5D65
:101650005F4FCE0101960E945C028130910579F0C6
:10166000AF960FB6F894DEBF0FBECDBFDF91CF911E
:101670001F910F91FF90EF90DF90CF900895D701C9
:10168000ED91FC910488F589E02D1BA70AA78EA196
:101690009FA1A8A5B9A58CA79DA7AEA7BFA7A60186
:1016A000BE01665D7F4FC7011995DACFCF93DF93F7
:1016B000FC01808D843061F0EF01C0D4E88DF0E052
:1016C000EE0FFF1FE451FD4F1182108284E0888FDE
:1016D000DF91CF910895FC01208D243011F080E03E
:1016E0000895E3E0F4E020E030E0A0E55FE0B3E05F
:1016F000ACBD1DBC2C985EBD00000DB407FEFDCF37
:101700004EB5FEBD00000DB407FEFDCF4EB5BEBD0B
:1017100000000DB407FEFDCF4EB51EBC00000DB499
:1017200007FEFDCF4EB52C9A4423C9F04831B9F0DD
:101730002F5F3F4FF39524303105D1F6FC01308DFA
:10174000343069F2AB01FC0175876487128E118E0B
:1017500020E062E0832F0E94580181E00895322F3B
:10176000FC01208FEFCFCF93DF93DC01ED91FC9153
:10177000048CF58DE02DB8E0EF33FB0709F5FC0193
:10178000218D328D21153105F1F0EC0142175307FF
:1017900088F4808D0E94FB1B9C01121613069CF49A
:1017A000898D9A8D821B930B9A8F898FC901DF9146
:1017B000CF910895A901808D0E94FB1B9C01EDCF64
:1017C000DF91CF9119948FEF9FEFF1CFCF92DF92FE
:1017D000EF92FF920F931F93CF93DF93EC016B0176
:1017E0007A0110E0812FD6D5882309F446C18B7F7A
:1017F000883109F442C11F5F1430A1F78C85843011
:1018000021F140910002509101024F5F5F4F41F181
:10181000509301024093000220E061E00E945801D1
:101820008C85F60192819F3F09F416C1911108C081
:10183000F6019381911104C09481992309F419C18F
:10184000E114F104B1F484E08C8780E090E0DF9152
:10185000CF911F910F91FF90EF90DF90CF9008955F
:1018600020E030EC309301022093000240E050EC85
:10187000D3CF90E59CBD1DBC482F50E04C5F5F4F1F
:10188000542F44279A01245F3F4FF6013296BA0144
:10189000605F7F4FA0EF2C98AEBD00000DB407FE37
:1018A000FDCF9EB53EBD00000DB407FEFDCF9EB539
:1018B0002EBD00000DB407FEFDCF9EB52F5F3F4F3C
:1018C00091919EBD00000DB407FEFDCF9EB52C9AF0
:1018D0002617370701F72C9890EF9EBD00000DB436
:1018E00007FEFDCF9EB57EBD00000DB407FEFDCF07
:1018F0009EB590E19EBD00000DB407FEFDCF9EB5E4
:10190000FEBC00000DB407FEFDCF9EB52C9A4F5EC5
:101910005F4F2C9890EF9EBD00000DB407FEFDCFE9
:101920009EB55EBD00000DB407FEFDCF9EB591E1F2
:101930009EBD00000DB407FEFDCF9EB5EEBC0000BD
:101940000DB407FEFDCF9EB52C9A64E070E00E94B6
:10195000881930E5F32E0FE013E08C85843021F0F8
:1019600019D5873109F48CC03FB7F8948091F402FF
:101970009091F502A091F602B091F70226B5A89BCE
:1019800005C02F3F19F00196A11DB11D3FBFBA2F11
:10199000A92F982F8827820F911DA11DB11D880F97
:1019A000991FAA1FBB1F880F991FAA1FBB1F3FB7F4
:1019B000F8944091F4025091F5026091F602709112
:1019C000F70226B5A89B06C02F3F21F04F5F5F4F5F
:1019D0006F4F7F4F3FBF762F652F542F4427420F05
:1019E000511D611D711D440F551F661F771F440F48
:1019F000551F661F771F481B590B6A0B7B0B483E10
:101A000053406105710598F28C85843009F41BCF31
:101A1000FCBC1DBC2C980EBD00000DB407FEFDCF14
:101A20009EB590E0982F88278D5F9B4F9EBD00004C
:101A30000DB407FEFDCF8EB51EBD00000DB407FE30
:101A4000FDCF8EB51EBC00000DB407FEFDCF8EB5D8
:101A50002C9A811182CFF7CE93819F3F09F0F0CE6F
:101A600094819F3F09F0ECCE95819F3F09F0E8CE2D
:101A7000EACE95819111E4CEE6CE812F1C87C1CEAE
:101A800081E090E0E4CE2F923F924F925F926F926E
:101A90007F928F929F92AF92BF92CF92DF92EF92FE
:101AA000FF920F931F93CF93DF93CDB7DEB7A1972C
:101AB0000FB6F894DEBF0FBECDBF4C017B016C01A9
:101AC00082E0C80ED11C1401A5E02A0E311CA12C05
:101AD000B12C9AE0492E512C612C712CF6012191E8
:101AE0006F0130E040E050E019A28E010F5D1F4F02
:101AF000CA01B901A30192010E94162580E3860F55
:101B0000D8018E938D01211531054105510581F7CD
:101B1000109709F46EC0FD0101900020E9F731979C
:101B2000AF014A1B5B0BD701ED91FC910280F38161
:101B3000E02DB801C70119958C01D701ED91FC91F9
:101B40000190F081E02D6EE2C7011995800F911F81
:101B5000A80EB91EC214D30409F6F401258130E0A1
:101B600040E050E019A28E010F5D1F4F8AE0482E21
:101B7000512C612C712CCA01B901A30192010E9460
:101B8000162580E3860FD8018E938D01211531052E
:101B90004105510581F7109779F1FD010190002071
:101BA000E9F73197AF014A1B5B0BD701ED91FC912F
:101BB0000280F381E02DB801C70119958A0D9B1DA4
:101BC000A1960FB6F894DEBF0FBECDBFDF91CF91C7
:101BD0001F910F91FF90EF90DF90CF90BF90AF904B
:101BE0009F908F907F906F905F904F903F902F903D
:101BF000089500E010E0A1CF80E090E0DFCF0E94E8
:101C0000E324FF920F931F93CF93DF93E90190E5B5
:101C10009CBD1DBC282F30E02C5F3F4F322F222768
:101C2000F901B0961F2F2F5D3F4F232FA0E0B0E0AA
:101C30009FE030E2F32E01E22C989EBD00000DB42F
:101C400007FEFDCF3EB51EBD00000DB407FEFDCF63
:101C50003EB5FEBC00000DB407FEFDCF3EB51EBC78
:101C600000000DB407FEFDCFEEB52C9AF0E02C98E5
:101C70009EBD00000DB407FEFDCF3EB52EBD000099
:101C80000DB407FEFDCF3EB50EBD00000DB407FE3E
:101C9000FDCF3EB51EBC00000DB407FEFDCF3EB526
:101CA0002C9AFE2FEE27E32B309791F4AE17BF0747
:101CB00009F0C2CFAC17BD0708F443C09E010E94D3
:101CC000D017CE01DF91CF911F910F91FF90089512
:101CD0002C989EBD00000DB407FEFDCF3EB51EBD85
:101CE00000000DB407FEFDCF3EB5FEBC00000DB4F4
:101CF00007FEFDCF3EB51EBC00000DB407FEFDCFB4
:101D0000AEB52C9AB0E02C989EBD00000DB407FE35
:101D1000FDCF3EB52EBD00000DB407FEFDCF3EB594
:101D20000EBD00000DB407FEFDCF3EB51EBC000089
:101D30000DB407FEFDCF3EB52C9ABA2FAA27A32BD0
:101D4000B5CFE0E0F0E09FE0B0E2A1E22C989EBDCC
:101D500000000DB407FEFDCF3EB51EBD00000DB462
:101D600007FEFDCF3EB5BEBD00000DB407FEFDCFA2
:101D70003EB51EBC00000DB407FEFDCFCEB52C9ABB
:101D8000D0E02C989EBD00000DB407FEFDCF3EB5FF
:101D90002EBD00000DB407FEFDCF3EB5AEBD000068
:101DA0000DB407FEFDCF3EB51EBC00000DB407FE0E
:101DB000FDCF3EB52C9ADC2FCC27C32B209729F4DE
:101DC000EC17FD0709F0C2CF79CF2C989EBD00001B
:101DD0000DB407FEFDCF3EB51EBD00000DB407FEDD
:101DE000FDCF3EB5BEBD00000DB407FEFDCF3EB534
:101DF0001EBC00000DB407FEFDCFEEB52C9AF0E03E
:101E00002C989EBD00000DB407FEFDCF3EB52EBD43
:101E100000000DB407FEFDCF3EB5AEBD00000DB411
:101E200007FEFDCF3EB51EBC00000DB407FEFDCF82
:101E30003EB52C9AFE2FEE27E32BC2CFDB0190E5B7
:101E40009CBD1DBC2C989FE09EBD00000DB407FEFC
:101E5000FDCF282F30E0A9014C5F5F4F542F44275E
:101E60008EB5CA0188969EBD00000DB407FEFDCF59
:101E70008EB588E28EBD00000DB407FEFDCF8EB595
:101E80001EBC00000DB407FEFDCF8EB52C9A90E06D
:101E9000475D5F4F2C986FE06EBD00000DB407FEEC
:101EA000FDCF4EB55EBD00000DB407FEFDCF4EB5B3
:101EB00049E24EBD00000DB407FEFDCF4EB51EBC7D
:101EC00000000DB407FEFDCF4EB52C9A982F882741
:101ED000842B220F331FF901E75FFC4F9C01377001
:101EE00080819181820F931F2C982FE02EBD0000DE
:101EF0000DB407FEFDCF2EB59EBD00000DB407FE4C
:101F0000FDCF9EB58EBD00000DB407FEFDCF8EB592
:101F10001EBC00000DB407FEFDCF8EB58C932C9A2D
:101F200081E090E0089590E59CBD1DBC90E0049692
:101F3000982F88279C012A5D3F4FF32F8796E92F22
:101F400080E090E04FE076E267E22C984EBD000022
:101F50000DB407FEFDCF2EB5FEBD00000DB407FE8B
:101F6000FDCF2EB57EBD00000DB407FEFDCF2EB512
:101F70001EBC00000DB407FEFDCF2EB52C9A30E03C
:101F80002C984EBD00000DB407FEFDCF5EB5EEBD32
:101F900000000DB407FEFDCF5EB56EBD00000DB4B0
:101FA00007FEFDCF5EB51EBC00000DB407FEFDCFE1
:101FB0005EB52C9A322F2227252B2115310529F4C5
:101FC0008217930709F0C1CF08952C984EBD0000E9
:101FD0000DB407FEFDCF8EB5FEBD00000DB407FEAB
:101FE000FDCF8EB57EBD00000DB407FEFDCF8EB5D2
:101FF0001EBC00000DB407FEFDCF8EB52C9A90E0FC
:102000002C984EBD00000DB407FEFDCF5EB5EEBDB1
:1020100000000DB407FEFDCF5EB56EBD00000DB42F
:1020200007FEFDCF5EB51EBC00000DB407FEFDCF60
:102030005EB52C9A982F8827852BC2CF90E59CBD42
:102040001DBC2C9890EF9EBD00000DB407FEFDCF87
:10205000482F50E04C5F5F4F542F44278EB5CA0184
:102060000196392F9EBD00000DB407FEFDCF8EB541
:1020700081E08EBD00000DB407FEFDCF8EB580E17E
:102080008EBD00000DB407FEFDCF8EB52C9A2FE05B
:1020900091E02C982EBD00000DB407FEFDCF8EB54B
:1020A0003EBD00000DB407FEFDCF8EB59EBD000005
:1020B0000DB407FEFDCF8EB51EBC00000DB407FEAB
:1020C000FDCF8EB52C9A8111E4CF4E5F5F4F2C98D7
:1020D00080EF8EBD00000DB407FEFDCF8EB55EBD56
:1020E00000000DB407FEFDCF8EB582E08EBD00006E
:1020F0000DB407FEFDCF8EB58FEF8EBD00000DB481
:1021000007FEFDCF8EB52C9A0895BF92CF92DF9235
:10211000EF92FF920F931F93CF93DF93E82E8A01E4
:102120004130584010F000E018E0CE2DD0E0249669
:10213000DC2FCC27CE018096B92FCE018196A92F16
:10214000CE010396F92E90E5C92E8FE050E241E2D0
:102150002FE0D22E33E0B32ECCBC1DBC20E030E00B
:102160002C98DEBC00000DB407FEFDCF9EB5BEBDB1
:1021700000000DB407FEFDCF9EB55EBD00000DB49E
:1021800007FEFDCF9EB51EBC00000DB407FEFDCFBF
:10219000EEB52C9AF0E02C988EBD00000DB407FE31
:1021A000FDCF9EB5AEBD00000DB407FEFDCF9EB5C0
:1021B0004EBD00000DB407FEFDCF9EB51EBC000055
:1021C0000DB407FEFDCF9EB52C9AFE2FEE27E92B0E
:1021D000309709F077C02E173F0709F0C1CF2C9830
:1021E0008EBD00000DB407FEFDCF9EB5FEBC000005
:1021F0000DB407FEFDCF9EB5BEBC00000DB407FEBA
:10220000FDCF9EB51EBC00000DB407FEFDCF9EB5F0
:102210002C9A973119F09C3109F08DC0E017F10725
:1022200008F49ACF80E58CBD1DBC9801AB0160E03D
:1022300070E08E2DB5D660E270E08E2D0E94881978
:1022400022964D2F8FE032E023E090E52C988EBD52
:1022500000000DB407FEFDCF5EB54EBD00000DB40D
:1022600007FEFDCF5EB53EBD00000DB407FEFDCFFD
:102270005EB51EBC00000DB407FEFDCF5EB52C9A06
:102280002C9854FD5BC08EBD00000DB407FEFDCF41
:102290005EB5FEBC00000DB407FEFDCF5EB52EBDE1
:1022A00000000DB407FEFDCF5EB51EBC00000DB4EE
:1022B00007FEFDCF5EB52C9A552309F466C09CBD80
:1022C0001DBCC4CF2C988EBD00000DB407FEFDCF01
:1022D0009EB5BEBD00000DB407FEFDCF9EB55EBD30
:1022E00000000DB407FEFDCF9EB51EBC00000DB46E
:1022F00007FEFDCF2EB52C9A30E02C988EBD000045
:102300000DB407FEFDCF9EB5AEBD00000DB407FEB7
:10231000FDCF9EB54EBD00000DB407FEFDCF9EB5AE
:102320001EBC00000DB407FEFDCF9EB52C9A322FC7
:102330002227292B50CF00E010E074CF80EF8EBD14
:1023400000000DB407FEFDCF8EB5DEBD00000DB45C
:1023500007FEFDCF8EB582E08EBD00000DB407FEF6
:10236000FDCF8EB580E18EBD00000DB407FEFDCF20
:102370008EB52C9AC801DF91CF911F910F91FF90DC
:10238000EF90DF90CF90BF9008958E2D57DE80E0C4
:1023900090E0F1CF90E59CBD1DBC2C989FE09EBDC8
:1023A00000000DB407FEFDCF9EB590E0982F882762
:1023B0008D5F9B4F9EBD00000DB407FEFDCF8EB517
:1023C00083E08EBD00000DB407FEFDCF8EB51EBCB0
:1023D00000000DB407FEFDCF8EB52C9A0895089528
:1023E000DC01ED91FC91068CF78DE02DBAE0EC3C20
:1023F000FB0771F4FC019485DB011C968C91981706
:1024000011F081E0089581E09430E1F380E00895D7
:10241000199591E089270895862F089581E08627F0
:102420000895CF92DF92EF92FF920F931F93CF9375
:10243000DF934115510509F16A018C017B01C0E070
:10244000D0E004C02196CC16DD0669F0D7016D916D
:102450007D01D801ED91FC910190F081E02DC80142
:102460001995892B79F7CE01DF91CF911F910F91AB
:10247000FF90EF90DF90CF900895C0E0D0E0F3CFD1
:10248000089580E090E00895FC018485843009F08F
:102490004ACD80E090E00895FC012485243031F19C
:1024A00080E58CBD1DBC2C988FE08EBD00000DB466
:1024B00007FEFDCF8EB530E0322F22272D5F3B4F38
:1024C0003EBD00000DB407FEFDCF8EB583E08EBD8E
:1024D00000000DB407FEFDCF8EB51EBC00000DB48C
:1024E00007FEFDCF8EB52C9A843111F480E008955B
:1024F0008823E9F38831D1F38C3111F081E008951C
:10250000A081B18118962D913C91199782E12434D4
:10251000380749F48485843049F305DD9C0181E066
:10252000232B21F30895CF01F90119959C01F7CFD1
:10253000DF92EF92FF920F931F93CF93DF93EC0103
:102540002C85243009F4EEC080E58CBD1DBC2C9890
:1025500080EF8EBD00000DB407FEFDCF8EB530E0DC
:10256000322F22272F5F3B4F432F3EBD00000DB47B
:1025700007FEFDCF8EB581E08EBD00000DB407FED5
:10258000FDCF8EB588E08EBD00000DB407FEFDCFF7
:102590008EB52C9A3FE021E02C983EBD00000DB492
:1025A00007FEFDCF9EB54EBD00000DB407FEFDCF6A
:1025B0009EB52EBD00000DB407FEFDCF9EB51EBC1E
:1025C00000000DB407FEFDCF9EB52C9A9111E4CF0B
:1025D0008FB7F8940091FD021091FE022091FF0246
:1025E000309100038FBFF0E5EFE0EE2EA3E0FA2E6E
:1025F0008C85843009F48CC0FCBD1DBC2C98EEBCCD
:1026000000000DB407FEFDCF9EB590E0982F8827FF
:102610008D5F9B4F9EBD00000DB407FEFDCF8EB5B4
:10262000FEBC00000DB407FEFDCF8EB51EBC000041
:102630000DB407FEFDCF8EB52C9A882309F467C030
:102640005FB7F8948091F4029091F502A091F602A0
:10265000B091F70246B5A89B05C04F3F19F001960F
:10266000A11DB11D5FBFBA2FA92F982F8827840FF6
:10267000911DA11DB11D880F991FAA1FBB1F880F97
:10268000991FAA1FBB1FDFB6F8944091F402509126
:10269000F5026091F6027091F702E6B5A89B06C0BC
:1026A000EF3F21F04F5F5F4F6F4F7F4FDFBE762FC1
:1026B000652F542F44274E0F511D611D711D440F6E
:1026C000551F661F771F440F551F661F771F481B36
:1026D000590B6A0B7B0B483E53406105710598F21C
:1026E0004FB7F8948091FD029091FE02A091FF02F5
:1026F000B09100034FBF801B910BA20BB30B883E20
:102700009340A105B10508F473CF8C8597DC8C85C7
:10271000E82FF0E0EE0FFF1FE451FD4F1182108211
:1027200084E08C87DF91CF911F910F91FF90EF9004
:10273000DF9008950F931F93CF93DF931F92CDB730
:10274000DEB78C01DC01ED91FC910084F185E02D78
:10275000B2E1E434FB07F1F4FC018485843091F0AC
:10276000E2DB892B79F0BE016F5F7F4FD8011C96A9
:102770008C9164DB898190E00F90DF91CF911F9164
:102780000F9108958FEF9FEF0F90DF91CF911F91E1
:102790000F9108951995E5CFFC0184850C94FB1BDE
:1027A000CF93DF931F92CDB7DEB741E050E0BE017B
:1027B0006F5F7F4FFC0184850E94FB1B1816190672
:1027C00034F4898190E00F90DF91CF9108958FEFDD
:1027D0009FEFF9CF0F931F93CF93DF938C01D42FEB
:1027E000C52FFC018485843019F08FDC892B61F4BE
:1027F00081E090E0F8019383828380E090E0DF91B4
:10280000CF911F910F9108958D2F9C2FDF91CF9124
:102810001F910F9108950F931F93CF93DF931F92F2
:10282000CDB7DEB78C016983DC01ED91FC910280AC
:10283000F381E02DB3E1EA3EFB07D9F4FC01848586
:10284000843041F041E050E0BE016F5F7F4F5DDCBE
:10285000892BD9F481E090E0D80113969C938E9354
:10286000129780E090E00F90DF91CF911F910F9130
:10287000089541E050E0BE016F5F7F4F19950F90C2
:10288000DF91CF911F910F91089581E090E00F901B
:10289000DF91CF911F910F910895FC012485243081
:1028A00019F080E090E008950C94E60BCF92DF924F
:1028B000EF92FF920F931F93CF93DF93CDB7DEB7C5
:1028C000AF970FB6F894DEBF0FBECDBF7C016A0193
:1028D0000AEC12E01A8309831C861B8688EE93E0BB
:1028E000A0E0B0E08D879E87AF87B88B83E292E04F
:1028F0009A878987188F0F8B198E1A8E1B8E1C8EC4
:1029000084E089A31DA30CA31EA21FA218A619A6CA
:102910008091190390911A03A0911B03B0911C039D
:102920008CA79DA7AEA7BFA78B839C83AD83BE83D7
:1029300018861F82AE014C5D5F4FCE0101960E944A
:102940005C028130910579F0AF960FB6F894DEBF46
:102950000FBECDBFDF91CF911F910F91FF90EF90F0
:10296000DF90CF900895D701ED91FC910684F78513
:10297000E02D1BA70AA78EA19FA1A8A5B9A58CA78A
:102980009DA7AEA7BFA7B4E1ED34FB0779F4F7012B
:102990008485843019F080E090E0D6CFA601BE0196
:1029A000665D7F4FC7010E94E60BCECFA601BE0138
:1029B000665D7F4FC7011995C7CF8CBD9DBD08953A
:1029C0002FB7F8946091FD027091FE028091FF0292
:1029D000909100032FBF08950F931F938B019C01CB
:1029E0009FB7F8944091F4025091F5026091F6027D
:1029F0007091F70286B5A89B06C08F3F21F04F5F0C
:102A00005F4F6F4F7F4F9FBF762F652F542F442707
:102A1000480F511D611D711D440F551F661F771F03
:102A2000440F551F661F771F01151105210531053C
:102A3000C9F1FFB7F8948091F4029091F502A0914A
:102A4000F602B091F702E6B5A89B05C0EF3F19F07A
:102A50000196A11DB11DFFBFBA2FA92F982F88275E
:102A60008E0F911DA11DB11D880F991FAA1FBB1F9D
:102A7000880F991FAA1FBB1F841B950BA60BB70BB2
:102A8000883E9340A105B105A0F20150110921092A
:102A9000310948515C4F6F4F7F4F011511052105DA
:102AA000310539F61F910F9108951F920F920FB6BD
:102AB0000F9211242F933F938F939F93AF93BF93C4
:102AC0008091FD029091FE02A091FF02B09100035F
:102AD0003091FA0223E0230F2D3768F126E8230F07
:102AE0000296A11DB11D2093FA028093FD029093DE
:102AF000FE02A093FF02B09300038091F402909134
:102B0000F502A091F602B091F7020196A11DB11D48
:102B10008093F4029093F502A093F602B093F7022B
:102B2000BF91AF919F918F913F912F910F900FBEC9
:102B30000F901F9018950196A11DB11DD4CF0F9332
:102B40001F93CF93DF93EFB7F8940091FD0210919C
:102B5000FE022091FF0230910003EFBFFC01008BC9
:102B6000118B228B338BC481D581E881F98102805E
:102B7000F381E02D83E1EA3EF807D9F48C858430B7
:102B800069F08A01C2DA0097D1F421E030E03B839A
:102B90002A83DF91CF911F910F91089581E090E0FA
:102BA0009B838A8380E090E0DF91CF911F910F910A
:102BB0000895CE01DF91CF911F910F911994C80113
:102BC000DF91CF911F910F9108950F931F93CF9392
:102BD000DF931F92CDB7DEB74FB7F8940091FD0297
:102BE0001091FE022091FF02309100034FBFFC01C3
:102BF000008B118B228B338B04811581F801A0810E
:102C0000B181ED91FC91119784E1EB30F80761F50A
:102C100069831296ED91FC91139783E1EA3EF807E0
:102C200059F5F8018485843099F041E050E0BE0107
:102C30006F5F7F4F6ADA009761F521E030E0F801BD
:102C4000338322830F90DF91CF911F910F910895CD
:102C500081E090E09383828380E090E00F90DF91A9
:102C6000CF911F910F910895C80119950F90DF9191
:102C7000CF911F910F91089541E050E0BE016F5F29
:102C80007F4FC80119950F90DF91CF911F910F9140
:102C9000089581E090E00F90DF91CF911F910F9107
:102CA0000895CF92DF92EF92FF921F93CF93DF931D
:102CB000CDB7DEB768970FB6F894DEBF0FBECDBFB5
:102CC000FA012AEC32E03A8329835FEF5B835C836D
:102CD0005D831E8238872F83C280D380E480F58095
:102CE000C986DA86EB86FC86FB01428153816481CA
:102CF00075814F87588B698B7A8B3C8B2B8BFC01B2
:102D000082819381A481B5818D8B9E8BAF8BB88F8F
:102D10006CE271E080E090E05FDE1FB7F894809194
:102D2000FC02811122C027EB31E0F90184916DEFA3
:102D300071E0FB01449190E0880F991F88599E4FE4
:102D4000FC01A591B4918C91482309F4A6C085E3B8
:102D500033D58CB580618CBD8CB580648CBD84E32B
:102D60002BD583E329D58091FC028F5F8093FC02F1
:102D70001FBF249A80E590E020DE60E880E090E0CC
:102D80000E943B0165E58BE190E00E943B0165E517
:102D90008AE190E00E943B0180E090E4909302037E
:102DA0008093010380E090E690930A0380930903E7
:102DB00080E098E4909304038093030380E098E616
:102DC00090930C0380930B0380E090E590930603AF
:102DD0008093050380E090E790930E0380930D03AA
:102DE00080E098E5909308038093070380E098E7DC
:102DF0009093100380930F0380E590E0DEDDEAE01E
:102E0000F2E089E020EF2C982EBD00000DB407FE03
:102E1000FDCF9EB51EBC00000DB407FEFDCF9EB5D4
:102E20008EBD00000DB407FEFDCF9EB591919EBDF5
:102E300000000DB407FEFDCF9EB52C9A8F5F8F303A
:102E400011F7BE016B5E7F4F8FE090E08ED4BE0124
:102E5000675F7F4F81E090E088D4BE016D5F7F4F58
:102E600085E090E082D48F859889A989BA8980937A
:102E7000190390931A03A0931B03B0931C03689645
:102E80000FB6F894DEBF0FBECDBFDF91CF911F917B
:102E9000FF90EF90DF90CF900895EDE3F1E0849103
:102EA000FB016491F9012491222309F450CF81118F
:102EB0000FC0E22FF0E0EE0FFF1FE25BFE4FA59187
:102EC000B4918FB7F8949C91692B6C938FBF3FCFCF
:102ED00090E0FC013197E231F10558F78827EE5870
:102EE000FF4F8F4F0C94AE2384B58F7784BDE1CF15
:102EF00080912001877F80932001DBCF809120018A
:102F00008F7D80932001D5CF809120018F77809392
:102F10002001CFCF8091A000877F8093A000C9CFF0
:102F20008091A0008F7D8093A000C3CF8091A000EE
:102F30008F778093A000BDCF80919000877F809392
:102F40009000B7CF809190008F7D80939000B1CF9B
:102F5000809190008F7780939000ABCF8091B000EC
:102F60008F7D8093B000A5CF8091B0008F77809344
:102F7000B0009FCF80918000877F8093800099CFA1
:102F8000809180008F7D8093800093CF809180001E
:102F90008F77809380008DCF84B58F7D84BD89CF5E
:102FA0008F929F92AF92BF92CF92DF92EF92FF9259
:102FB0000F931F93CF93DF93E901E82EF12CD701F4
:102FC0001496BA2FAA278D010C5D1F4F2C988FE005
:102FD0008EBD00000DB407FEFDCF8EB51EBD0000F6
:102FE0000DB407FEFDCF8EB584E28EBD00000DB49A
:102FF00007FEFDCF8EB51EBC00000DB407FEFDCF51
:103000008EB52C9A90E095962C982FE02EBD00005E
:103010000DB407FEFDCF2EB5BEBD00000DB407FEFA
:10302000FDCF2EB525E22EBD00000DB407FEFDCF6D
:103030002EB51EBC00000DB407FEFDCF2EB52C9A98
:10304000982F8827822B680F791F9B013770EE0C11
:10305000FF1CF701EF5FFC4F80819181820F931F6E
:103060006901CC0EDD1EE1E0CE16E8E0DE0608F0D8
:103070006DC0209721F1FA01AC014C0F5D1F20EFCC
:103080002C982EBD00000DB407FEFDCF3EB59EBDB1
:1030900000000DB407FEFDCF3EB58EBD00000DB49F
:1030A00007FEFDCF3EB5019631913EBD00000DB447
:1030B00007FEFDCF3EB52C9A8417950709F76C0FD4
:1030C0007D1F2C9880EF8EBD00000DB407FEFDCF54
:1030D0008EB51EBD00000DB407FEFDCF8EB584E297
:1030E0008EBD00000DB407FEFDCF8EB57EBD000085
:1030F0000DB407FEFDCF8EB52C9A2C9880EF8EBDB7
:1031000000000DB407FEFDCF8EB5BEBD00000DB4AE
:1031100007FEFDCF8EB585E28EBD00000DB407FE23
:10312000FDCF8EB56EBD00000DB407FEFDCF8EB590
:103130002C9ADF91CF911F910F91FF90EF90DF902C
:10314000CF90BF90AF909F908F900895E0E0F8E00F
:103150004F01821A930AFA016C01C80CD91C20EFA6
:10316000A22E2C98AEBC00000DB407FEFDCFBEB45D
:103170009EBD00000DB407FEFDCFBEB48EBD0000A5
:103180000DB407FEFDCFBEB40196B190BEBC0000E9
:103190000DB407FEFDCFBEB42C9A8C159D0509F722
:1031A0009E0128193909C7018F5F9C4FFC0180815E
:1031B00091812115310509F482CFFA01E80DF91D3D
:1031C000A901480F591F30EF2C983EBD00000DB4E7
:1031D00007FEFDCF2EB59EBD00000DB407FEFDCF4E
:1031E0002EB58EBD00000DB407FEFDCF2EB50196A5
:1031F00021912EBD00000DB407FEFDCF2EB52C9AF7
:103200008417950709F75BCF8F929F92AF92BF9279
:10321000CF92DF92EF92FF920F931F93CF93DF93A2
:103220001F92CDB7DEB78C018FB7F8948090FD0266
:103230009090FE02A090FF02B09000038FBF24C0C8
:103240001C968C91843021F00E94930F892B71F58C
:103250008FB7F894C090FD02D090FE02E090FF027C
:10326000F09000038FBF20912B0330912C03C818DE
:10327000D908EA08FB08A8EEB3E00E943825C61674
:10328000D706E806F906E8F5A0912303B0912403D8
:10329000ED91FC9111970084F185E02D82E1E434F9
:1032A000F80771F2CD011995892B91F2A0912303B2
:1032B000B0912403ED91FC9111970284F385E02DE8
:1032C00083E1E03DF807F9F441E050E0BE016F5FB3
:1032D0007F4F1C968C918FD218161906BCF48981E9
:1032E000F801808381E00F90DF91CF911F910F91C2
:1032F000FF90EF90DF90CF90BF90AF909F908F9016
:10330000089580E0F0CFCD011995EACF8FEFE8CF97
:1033100090E0982F88278F5F9B4F2C9820EF2EBD31
:1033200000000DB407FEFDCF8EB5392F9EBD000005
:103330000DB407FEFDCF8EB581E08EBD00000DB44B
:1033400007FEFDCF8EB56EBD00000DB407FEFDCFAC
:103350008EB52C9A2FE091E02C982EBD00000DB474
:1033600007FEFDCF8EB53EBD00000DB407FEFDCFBC
:103370008EB59EBD00000DB407FEFDCF8EB51EBC00
:1033800000000DB407FEFDCF8EB52C9A8111E4CF5D
:1033900008952F923F924F925F926F927F928F92F9
:1033A0009F92AF92BF92CF92DF92EF92FF920F93D4
:1033B0001F93CF93DF931F92CDB7DEB71C0180918F
:1033C00025039091260320DF882309F472C0E09141
:1033D0002503F0912603D0801982812C912C540171
:1033E000412C512C32014394EE24E394F12C01C082
:1033F0007801CE01019608DF882309F45AC08701BD
:103400000F5F1F4F8981E0912503F0912603EE0D98
:10341000FF1D8083E981AE2FAF77B0E0A301920159
:103420000E940C25860E971EA81EB91E440C551C22
:10343000661C771C440C551C661C771C440C551CE0
:10344000661C771C440C551C661C771C440C551CD0
:10345000661C771C440C551C661C771C440C551CC0
:10346000661C771CE7FF3CC00530110509F0C0CF92
:103470008FEF9FEF90934703809346038091230340
:1034800090912403DC01ED91FC910488F589E02DF5
:10349000199560E070E0CB010FC0809127039091F7
:1034A0002803A0E0B0E08C159D05AE05BF0508F02F
:1034B00058C060E070E0CB010F90DF91CF911F9179
:1034C0000F91FF90EF90DF90CF90BF90AF909F90C3
:1034D0008F907F906F905F904F903F902F900895C6
:1034E0008FEF800FF10180838D2D807F8033E9F194
:1034F0002801612C712C81149104A104B10441F1C3
:1035000073016201C80CD91CEA1CFB1C1BC0809112
:103510002703909128030817190750F48981E09137
:103520002503F0912603E00FF11F80830F5F1F4FEB
:10353000BFEF4B1A5B0A6B0A7B0A4C145D046E04E6
:103540007F0441F0CE0101965FDE8111E0CFB1CF63
:10355000730162018091440390914503892B09F422
:103560009CCFB80180E090E0A7CF80912503909197
:103570002603800F911F48DE882309F49ACF2091FB
:10358000250330912603C7010296820F931F3CDE6C
:10359000882309F48ECF0E5F1F4FE0912503F09131
:1035A0002603D1018C91DF01A80FB11D11968C91DA
:1035B000119790E0982F882712962C91820F911DD9
:1035C000208121FD02962801612C712CE3E08E16EA
:1035D0009104A104B10408F4BBCF73016201E2E0DD
:1035E000CE1AD108E108F108C80CD91CEA1CFB1C52
:1035F0004C01A12CB12C1CC0809127039091280371
:103600000817190750F48981E0912503F0912603EA
:10361000E00FF11F80830F5F1F4FBFEF4B1A5B0A54
:103620006B0A7B0A4C145D046E047F0409F492CF8C
:10363000CE010196E9DD882309F43BCF8091440354
:10364000909145030097C1F2D1012C914EEF5FEFAD
:103650006FEF7FEF421B510961097109440D551D40
:10366000661D771D84169506A606B70628F6DC01AA
:10367000ED91FC910190F081E02D69811995BCCF0D
:10368000CF93DF93C0912303D09124032097B9F007
:10369000E881F9810688F789E02D22E1EC34F20710
:1036A00009F03FC08C85843021F00E94CA1184311A
:1036B00051F48091460390914703892BA1F080E05B
:1036C000DF91CF9108958823A1F3883191F38C3154
:1036D000B1F181E02091460330914703232B79F724
:1036E000DF91CF9108958DEF9FEF909347038093E3
:1036F00046038091230390912403FC01A081B181B2
:103700001696ED91FC91179721E1EF3EF20771F4C7
:103710005496ED91FC915597199580E0DF91CF91EA
:103720000895CE011995882321F2D3CF1995809160
:10373000230390912403FC01A081B181E9CFE881AA
:10374000F9810084F185E02D82E1E434F80751F439
:103750008C85843009F4ADCF0E94930F892B09F03A
:10376000B8CFA7CFCE011995F9CFFB01AB014C5FC4
:103770005F4F30EF2C983EBD00000DB407FEFDCF2B
:103780002EB59EBD00000DB407FEFDCF2EB58EBD3B
:1037900000000DB407FEFDCF2EB5019621912EBD80
:1037A00000000DB407FEFDCF2EB52C9AE417F507E7
:1037B00009F784E090E0089590E0FC01E853FE4FA3
:1037C0002491FC01EE57FE4F8491882399F090E0FC
:1037D000880F991FFC01E859FE4FA591B491FC0197
:1037E000E25BFE4F859194918FB7F894EC91E22BB8
:1037F000EC938FBF08956F927F929F92AF92BF928A
:10380000CF92DF92EF92FF920F931F93CF93DF93AC
:10381000DA0190E59CBD1DBCC82FD0E0FE013496B6
:10382000FE2FEE27CF018696E92ECF018796F92E3F
:1038300000E010E09FE046E287E22C989EBD000089
:103840000DB407FEFDCF2EB5EEBC00000DB407FE93
:10385000FDCF2EB54EBD00000DB407FEFDCF2EB539
:103860001EBC00000DB407FEFDCF2EB52C9A30E033
:103870002C989EBD00000DB407FEFDCF5EB5FEBCCA
:1038800000000DB407FEFDCF5EB58EBD00000DB487
:1038900007FEFDCF5EB51EBC00000DB407FEFDCFD8
:1038A0005EB52C9A322F2227252B2115310509F0E0
:1038B00015C10217130709F0C0CFC801009709F41A
:1038C0004CC1A017B1070CF442C1181619060CF030
:1038D000F7C06F0128E2C20ED11C2C982FE02EBD3C
:1038E00000000DB407FEFDCF2EB5DEBC00000DB408
:1038F00007FEFDCF2EB528E22EBD00000DB407FE59
:10390000FDCF2EB51EBC00000DB407FEFDCFAEB539
:103910002C9AB0E07F0129E2E20EF11C2C982FE0F6
:103920002EBD00000DB407FEFDCF2EB5FEBC00007D
:103930000DB407FEFDCF2EB529E22EBD00000DB45B
:1039400007FEFDCF2EB51EBC00000DB407FEFDCF57
:103950002EB52C9ABA2FAA273D01622A830117702F
:10396000AE014C5F5F4FEA01CC0FDD1FCF5FDC4F34
:1039700028813981200F311FEC01C00FD11FC130C8
:10398000D84008F016C1DB01C0E0D0E05FE02C9821
:103990005EBD00000DB407FEFDCF4EB53EBD00007C
:1039A0000DB407FEFDCF4EB52EBD00000DB407FED1
:1039B000FDCF4EB52F5F3F4F1EBC00000DB407FE7C
:1039C000FDCF4EB54D932C9A2196C817D907F8F222
:1039D000DC01A60DB71D2C9820EF2EBD00000DB404
:1039E00007FEFDCF2EB5DEBC00000DB407FEFDCFF7
:1039F0002EB528E22EBD00000DB407FEFDCF2EB57A
:103A0000BEBD00000DB407FEFDCF2EB52C9A2C983C
:103A100020EF2EBD00000DB407FEFDCF2EB5FEBC7D
:103A200000000DB407FEFDCF2EB529E22EBD00002B
:103A30000DB407FEFDCF2EB5AEBD00000DB407FEE0
:103A4000FDCF2EB52C9A31962C9820EF2EBD00007C
:103A50000DB407FEFDCF2EB55F2FFEBD00000DB4E7
:103A600007FEFDCF2EB521E02EBD00000DB407FEF0
:103A7000FDCF2EB520E42EBD00000DB407FEFDCF16
:103A80002EB52C9A4FE031E02C984EBD00000DB4BD
:103A900007FEFDCF2EB55EBD00000DB407FEFDCFC5
:103AA0002EB53EBD00000DB407FEFDCF2EB51EBCE9
:103AB00000000DB407FEFDCF2EB52C9A2111E4CFE6
:103AC000DF91CF911F910F91FF90EF90DF90CF90FA
:103AD000BF90AF909F907F906F9008952C989EBD5F
:103AE00000000DB407FEFDCF5EB5EEBC00000DB4C6
:103AF00007FEFDCF5EB54EBD00000DB407FEFDCF45
:103B00005EB51EBC00000DB407FEFDCF0EB52C9AAD
:103B100010E02C989EBD00000DB407FEFDCF5EB5F1
:103B2000FEBC00000DB407FEFDCF5EB58EBD0000EB
:103B30000DB407FEFDCF5EB51EBC00000DB407FE40
:103B4000FDCF5EB52C9A102F0027052BB2CECD01EC
:103B5000181619060CF4BDCEB3CF33962C982FE06F
:103B60002EBD00000DB407FEFDCF2EB5FEBD00003A
:103B70000DB407FEFDCF2EB523E02EBD00000DB421
:103B800007FEFDCF2EB51EBC00000DB407FEFDCF15
:103B90002EB52C9A243109F493CF222309F490CF27
:103BA00081E090E02C3109F463C0919581959109F1
:103BB00087CFC0E0D8E05E01A01AB10AEB0189010D
:103BC0000A0D1B1DAFE02C98AEBD00000DB407FE22
:103BD000FDCF9EB43EBD00000DB407FEFDCF9EB4E8
:103BE0002EBD00000DB407FEFDCF9EB42F5F3F4FEA
:103BF0001EBC00000DB407FEFDCF9EB499922C9A16
:103C00002017310701F7EC01CA19DB099A01220FCD
:103C1000331FD901AF5FBC4F2D913C91209709F420
:103C2000D7CEDB01AA0DBB1DC20FD31F5FE02C98BE
:103C30005EBD00000DB407FEFDCF4EB53EBD0000D9
:103C40000DB407FEFDCF4EB52EBD00000DB407FE2E
:103C5000FDCF4EB52F5F3F4F1EBC00000DB407FED9
:103C6000FDCF4EB54D932C9A2C173D0701F7B0CEE2
:103C700080E090E09ACFCF93DF93CDB7DEB768971F
:103C80000FB6F894DEBF0FBECDBF789484B58260C6
:103C900084BD84B5816084BD85B5826085BD85B5F0
:103CA000816085BD80916E00816080936E0010926E
:103CB00081008091810082608093810080918100E9
:103CC000816080938100809180008160809380007A
:103CD0008091B10084608093B1008091B0008160D8
:103CE0008093B000809191008260809391008091D8
:103CF0009100816080939100809190008160809319
:103D000090008091A10082608093A1008091A10029
:103D100081608093A1008091A00081608093A000C9
:103D20008091210182608093210180912101816035
:103D300080932101809120018160809320018091F6
:103D40007A00846080937A0080917A008260809308
:103D50007A0080917A00816080937A0080917A0065
:103D6000806880937A001092C1000AEC12E01A83F6
:103D700009838091060290910702A0910802B091F8
:103D800009028B839C83AD83BE831987088780914A
:103D9000020290910302A0910402B09105028A8769
:103DA0009B87AC87BD871F870E87809157039091B3
:103DB0005803A0915903B0915A03888B998BAA8B11
:103DC000BB8BAE014F5F5F4FBE01685F7F4FCE017F
:103DD0000E960E9451166CED75E080E090E00E9416
:103DE000EC1482ED92E090934103809340038BE5C5
:103DF00097E0909343038093420342DC882309F4C5
:103E00008AC270E0272E70E0372EEDEF6E2E7724F9
:103E10007A94FCEF4F2E55245A9414C0F8018485EF
:103E2000843029F00E94CA11843109F0A3C0809126
:103E3000460390914703892B09F4C1C02114310432
:103E400009F095C000912303109124030115110579
:103E5000A9F3D801ED91FC910688F789E02DB2E134
:103E6000EC34FB07D9F2C8011995882301F380913E
:103E7000460390914703892B09F78FB7F894C090B8
:103E8000FD02D090FE02E090FF02F09000038FBF91
:103E90002091290330912A03A8EEB3E0E9D50091DF
:103EA00033031091340320913503309136034601DA
:103EB0005701801A910AA20AB30A681579058A0582
:103EC0009B0508F496C000912F03109130032091B8
:103ED00031033091320346015701801A910AA20A38
:103EE000B30A681579058A059B0508F482C000911C
:103EF000230310912403F801A081B1811896ED915C
:103F0000FC91199722E1E434F20709F0CBC0D80103
:103F10001C968C91843009F491CF0E94930F892BC9
:103F200009F48CCFCE01019634DA4B015C01672B8A
:103F300009F4DDC0C0923303D0923403E09235031C
:103F4000F0923603E0912503F09126038081807F73
:103F5000803309F4D7C0803C09F429C1803D09F0C1
:103F60006DCF109237032114310409F46BCF0E94F6
:103F7000000068CF882309F45ACF883109F457CF5D
:103F80008C3109F074CFD801ED91FC910084F1855A
:103F9000E02DB2E1E434FB0709F0A4C1F801848507
:103FA000843009F444CF0E94930F892B09F05FCF2E
:103FB0008091460390914703892B09F03FCF70927F
:103FC0004703609246038091230390912403FC01F0
:103FD000A081B1811696ED91FC91179721E1EF3EFA
:103FE000F20709F086C05496ED91FC91559719950A
:103FF00025CF80913703811158C0E0912503F091BE
:104000002603B0ECB083E0912503F09126031182E2
:104010000091230310912403F801A081B18112962D
:10402000ED91FC911397609125037091260323E194
:10403000EA3EF20709F049C0F8018485843009F4AA
:1040400050C042E050E00E948510892B09F041C029
:10405000E1E0F0E0D8011396FC93EE931297009103
:10406000230310912403F801A081B181C0922F0392
:10407000D0923003E0923103F0923203C0923303C6
:10408000D0923403E0923503F0923603F1E0F093DE
:1040900037031896ED91FC91199722E1E434F20769
:1040A00009F435CFC80119953ACF50924703409291
:1040B00046038091230390912403DC01ED91FC9150
:1040C0000488F589E02D1995B9CE42E050E0C80189
:1040D00019950091230310912403F801A081B18167
:1040E000C5CF88248394912C93828282BFCFC8DA73
:1040F000A5CE19958091230390912403FC01A08102
:10410000B18171CF8091380390913903892B09F4E3
:1041100095CE698170E0CB0102969F01280F391F6F
:10412000DF01A60FB71F11968C9190E0982F88277A
:10413000D9014C918C01040F111D6D5F7F4F6E0FE3
:104140007F1FA801C9014CD48981E0912503F0911A
:104150002603E00FF11FE80FF11D1282E091250305
:10416000F0912603298130E0C9010296DF01A80FF2
:10417000B91FB88FAF8B808186708C8B823009F429
:1041800045C0CD014DEF5FEF421B530B401B510B60
:10419000480D591DB9016D5F7F4F600F711F6E0F84
:1041A0007F1FE0913803F0913903199547CE90EDC8
:1041B000892E8082E0912503F091260311820091DF
:1041C000230310912403D801ED91FC910280F38127
:1041D000E02D6091250370912603B3E1EA3EFB07D1
:1041E00009F089C0F8018485843009F47EC042E07A
:1041F00050E00E948510892B09F020CEE1E0F0E02C
:10420000D8011396FC93EE93129718CEB801620F63
:10421000731FAF01460F571FDA0113968C91139746
:1042200090E0982F882714964C91DC01A40FB11DC3
:10423000BE8BAD8B8BEF9FEF821B930B801B910B83
:10424000AC01480D591D6B5F7F4F6E0F7F1FE091D2
:104250003803F09139038F89988D1995E0912503E2
:10426000F0912603B0E4B083E0912503F09126039A
:104270008C888182E0912503F09126039E889282AA
:10428000E0912503F0912603AD88A38200912303DA
:1042900010912403D801ED91FC910280F381E02D6F
:1042A0006091250370912603B3E1EA3EFB0771F5A7
:1042B000F8018485843021F144E050E00E948510AB
:1042C000892B39F4E1E0F0E0D8011396FC93EE93EA
:1042D0001297C0922F03D0923003E0923103F092F4
:1042E0003203ACCDC801199560CE88248394912CFB
:1042F00093828282A3CD42E050E0C80119959ECD01
:1043000088248394912C93828282E3CF44E050E00E
:10431000C8011995DECF8091230390912403DC011D
:10432000ED91FC910688F789E02D1995882309F411
:1043300014C181E090E090932E0380932D0387E0D9
:10434000EFE6F2E0DE01119601900D928A95E1F719
:10435000E0912503F091260389818583E09125036F
:10436000F09126038A818683E0912503F09126034C
:104370008B81878300912503109126038C81F8019E
:1043800080878D8181878E8182878F81838782E07C
:10439000848780912A038587809129038687E0900E
:1043A0002703F0902803B70180EE92E02AD34196CC
:1043B000E816F90608F4C5C0D8015196E1EEF2E01E
:1043C00020E030E08DE6690142E1C40ED11C8D93FE
:1043D0002F5F3F4F81918111F6CFC601821B930B56
:1043E000080F191FF801329730833196208355E06A
:1043F000C51AD108E0902503F09026039C2D9F77E5
:104400009601220F232F221F330B319521153105E1
:1044100009F4C3C080E0E8E0F0E0EC0FFD1FE80F16
:10442000F11D90689083922F9F77220F232F221FD8
:10443000330B31958F5F2115310569F7E8E0F0E026
:10444000EC0FFD1FE80FF11D90838F5F082F10E028
:10445000F701E01BF10B80E184830115110581F068
:1044600085E090E0801B910B8E0D9F1DA80110161A
:10447000110614F041E050E0BE01685F7F4FA7D203
:104480008091230390912403DC01ED91FC91A8011C
:104490004F5F5F4F4C0D5D1DB701601B710B6C5F73
:1044A0007F4F0280F381E02D19950E94E014609304
:1044B0002F037093300380933103909332030E9453
:1044C000E01460932F037093300380933103909333
:1044D00032036093330370933403809335039093D6
:1044E00036038091230390912403DC01ED91FC912C
:1044F0000084F185E02D1995892B09F058C00E94A0
:10450000E01420912B0330912C03C0903303D09002
:104510003403E0903503F09036034B015C018C18B6
:104520009D08AE08BF08A8EEB3E0A2D28616970693
:10453000A806B906B0F28CEF9FEF909347038093E3
:1045400046038091230390912403DC01ED91FC91BB
:104550000488F589E02D199554CC60914003709141
:1045600041038091230390912403DC01ED91FC91A0
:104570006115710571F14091420350914303008828
:10458000F189E02D1995019709F4D3CE8EEF9FEFB5
:10459000909347038093460334CC988780E1D701FA
:1045A00013968C9384E090E001E010E05DCFCE01A3
:1045B00008960E94C919643071058105910509F6B4
:1045C000E0912503F091260383818823E1F090E0B8
:1045D000B4CF0684F785E02D409142035091430308
:1045E0001A83098300913C0310913D0320913E03FF
:1045F00030913F030B831C832D833E83BE016F5F8D
:104600007F4F1995C0CF0E94E014609333037093DD
:10461000340380933503909336031092370310923E
:10462000470310924603EDCBEFE1F3E08AE792E017
:1046300091838083868197812EC1CF93DF93E1E6BA
:10464000F3E08AEC92E091838083128213821482D9
:104650001582E1E1F3E09183808312821382148258
:104660001582E7E6F3E0918380831282138214823D
:104670001582EDE6F3E09183808312821382148227
:104680001582E3E7F3E09183808312821382148220
:104690001582E9E7F3E0918380831282138214820A
:1046A0001582E7E1F3E09183808312821382148202
:1046B0001582EFE7F3E091838083128213821482E4
:1046C0001582EBE5F3E091838083128213821482DA
:1046D0001582E5E5F3E0918380832CEA228320E1D3
:1046E0002383148224E62583E8E4F3E01382128214
:1046F00048EE53E060E070E044835583668377833F
:1047000026E832E03183208324E02487CFE1D3E020
:104710001B821A822AE732E0398328839C8F8B8F91
:104720001D8E1E8E1F8E18A28FEF9FEF98A78FA34E
:10473000FD83EC831EA21DA280E091E017D09F8331
:104740008E8380E091E0998788878FE090E09B8757
:104750008A879D878C87DF91CF910895EE0FFF1F89
:10476000881F8BBF0790F691E02D1994CF93DF93AC
:104770008230910510F482E090E0E0918703F0919F
:10478000880320E030E0C0E0D0E0309711F14081B4
:10479000518148175907C0F04817590761F48281C1
:1047A0009381209719F09B838A832BC09093880371
:1047B0008093870326C02115310519F0421753074E
:1047C00018F49A01BE01DF01EF010280F381E02DB0
:1047D000DCCF2115310509F1281B390B24303105B7
:1047E00090F412968D919C9113976115710521F0AB
:1047F000FB019383828304C0909388038093870393
:10480000FD01329644C0FD01E20FF31F81939193A5
:10481000225031092D933C933AC020918503309169
:104820008603232B41F42091110230911202309320
:1048300086032093850320910F02309110022115E9
:10484000310541F42DB73EB7409113025091140247
:10485000241B350BE0918503F0918603E217F307E3
:10486000A0F42E1B3F0B2817390778F0AC014E5FE0
:104870005F4F2417350748F04E0F5F1F5093860394
:10488000409385038193919302C0E0E0F0E0CF0173
:10489000DF91CF9108950F931F93CF93DF930097EC
:1048A00009F48CC0FC0132971382128200918703B5
:1048B000109188030115110581F420813181820F47
:1048C000931F20918503309186032817390779F5C6
:1048D000F0938603E093850371C0D80140E050E077
:1048E000AE17BF0750F412962D913C911397AD016E
:1048F0002115310509F1D901F3CF9D01DA01338387
:10490000228360817181860F971F8217930769F454
:10491000EC0128813981260F371F2E5F3F4F3183ED
:1049200020838A819B8193838283452B29F4F09392
:104930008803E093870342C01396FC93EE9312978B
:10494000ED01499159919E01240F351FE217F3079C
:1049500071F480819181840F951F029611969C932A
:104960008E938281938113969C938E931297E0E0AD
:10497000F0E0D80112968D919C911397009719F051
:10498000F8018C01F6CF8D919C9198012E5F3F4FDD
:10499000820F931F209185033091860328173907D2
:1049A00069F4309729F4109288031092870302C0AB
:1049B000138212821093860300938503DF91CF91B7
:1049C0001F910F91089581E090E0F89460C0FB0181
:1049D000DC0102C001900D9241505040D8F708957B
:1049E0006817790768F4FB01DC01E40FF51FA40FD9
:1049F000B51F02C002900E9241505040D8F7089562
:104A0000E6CFFC016150704001900110D8F780950D
:104A100090958E0F9F1F08952BD0A59F900DB49F4A
:104A2000900DA49F800D911D11240895A1E21A2ECE
:104A3000AA1BBB1BFD010DC0AA1FBB1FEE1FFF1F42
:104A4000A217B307E407F50720F0A21BB30BE40B92
:104A5000F50B661F771F881F991F1A9469F76095D9
:104A60007095809590959B01AC01BD01CF01089593
:104A7000A29FB001B39FC001A39F700D811D11249F
:104A8000911DB29F700D811D1124911D089511E09B
:104A9000C8E0D1E000E005C0802FFE015FDE219676
:104AA000011DC930D10780E00807B1F7F894FFCFA6
:104AB00000C0C0A80001FFFFFF00DEEDBAFEED0060
:104AC00000890380000100000001005E000000007A
:104AD0000000002809150941121D07B20A650827C0
:104AE000086B0B1E07560B2D0AE20A640993083F58
:104AF00008B30BBA0AB60A00000000FF0DFF0D4113
:104B000012FF0DFF0DFF0DFF0DFF0DCA0AFF0DFF78
:104B10000DFF0DFF0DFF0DFF0DFF0DFF0DFF0D0034
:104B2000044D5154540400000000E5159F15411236
:104B30004012000000000B14EA134112EF1144125E
:104B4000D0139A134D145614CC1398124C12D80A41
:104B50000E120C12CC0AF01100000000FF0D111211
:104B600041124012FF0DFF0DFF0D00000000FF0D70
:104B700011124112401200000000430D000000001D
:104B8000FF0D3139322E3136382E302E3235340089
:0C4B90006D79436C69656E744944000047
:00000001FF
